:1000000000800020BD01000001510000B950000037
:10001000B9500000B9500000B9500000B9500000BC
:10002000B9500000B9500000B95000000151000063
:1000300001510000B95000007D4D0000814E0000CC
:100040000151000001510000015100000151000068
:100050000151000001510000015100000151000058
:100060000151000001510000015100000151000048
:100070000151000001510000015100000151000038
:100080000151000001510000015100000151000028
:100090000151000001510000015100000151000018
:1000A000C94A0000D54A000001510000015100007A
:1000B00001510000015100000151000001510000F8
:1000C00001510000015100000151000001510000E8
:1000D00001510000015100000151000001510000D8
:1000E00001510000015100000151000001510000C8
:1000F00001510000BD68000001510000E9690000E5
:1001000001510000156B0000015100000151000079
:100110000151000001510000015100000151000097
:100120000151000001510000015100000151000087
:100130000151000001510000015100000151000077
:100140000151000001510000015100000151000067
:100150000151000001510000015100000151000057
:1001600001510000E1570000015100000151000061
:100170000151000001510000015100000151000037
:100180000151000001510000015100000151000027
:100190000151000001510000015100000151000017
:1001A0000151000001510000015100000151000007
:1001B000015100000151000001510000564B4CF26A
:1001C000205210B51A804DF628121A8000BF00BFC9
:1001D00004F09AFF514B4FF010621A60504A9A6037
:1001E000504ADA60504A136813F4807304D14F49BF
:1001F0000B604FF4A85313604D4B1A78110703D5C9
:100200001A7842F008021A704A4B4B492A221A7097
:100210004A4A4B4B8B4204D252F8040F43F8040B6A
:10022000F8E7484B484900228B4202D243F8042B9E
:10023000FAE74649464A002352F8230041F82300D2
:1002400001336F2BF8D1434B434A802103F8011B44
:100250009342FBD1414B3D4A1A60414B8A221A70AE
:10026000A3F5805324225A70A0221A709A7992071B
:10027000FCD59A79D406FCD43A4A937903F00C035E
:10028000082B384BF9D103221A7146225A719A79F8
:100290009006FCD5334A9179324B4906FBD5324A58
:1002A0004FF0827111600921516020221A709A79F1
:1002B00002F00C020C2AFAD12C4B2D4A1A602D4B5D
:1002C0002D4A1A6000225A60072243F8042C2B4A58
:1002D000C3F80C2D62B605F039F9144B1B68DA0728
:1002E00005D5274805F096F8264B274A1A60274B74
:1002F0001B785B0609D5234C234B22689A4204D114
:100300001F4805F087F80023236006F0C3FC04F0C3
:1003100001FF04F02FFEFEE70E2005403080044070
:10032000823F04000100002B10D0034014D0034092
:1003300002D0074000E007406497FF1FA88000003C
:100340002087FF1F6497FF1FA0A1FF1F0082FF1FD0
:100350000000000000E400E05FE400E008ED00E0E1
:1003600000500640004006404480044004800440A1
:10037000C010050014E000E0BFD401000000202000
:100380004E75485D1CE00340A5C3945A00F0074039
:10039000FFFFFFFFFFFFFFFFFFFFFFFFFFFFFFFF6D
:1003A000FFFFFFFFFFFFFFFFFFFFFFFFFFFFFFFF5D
:1003B000FFFFFFFFFFFFFFFFFFFFFFFFFFFFFFFF4D
:1003C000FFFFFFFFFFFFFFFFFFFFFFFFFFFFFFFF3D
:1003D000FFFFFFFFFFFFFFFFFFFFFFFFFFFFFFFF2D
:1003E000FFFFFFFFFFFFFFFFFFFFFFFFFFFFFFFF1D
:1003F000FFFFFFFFFFFFFFFFFFFFFFFFFFFFFFFF0D
:10040000FFFFFFFFFFFFFFFFFFFFFFFFDEF9FFFF23
:1004100010B5054C237833B9044B13B10448AFF33E
:1004200000800123237010BD6497FF1F00000000AF
:10043000AC800000084B10B51BB108490848AFF369
:1004400000800848036803B910BD074B002BFBD0A0
:10045000BDE81040184700BF000000006897FF1F6C
:10046000AC8000006497FF1F000000000020704770
:10047000704700BF38B5044600F10805D4F8A43031
:10048000284698474FF6FD7398420CD8034694F8D7
:10049000A92094F8A810284602F098FE94F8A830F5
:1004A000184484F8A800012038BD00BF2DE9F047AA
:1004B00015469AB304460F46DFF86490002600F113
:1004C00008084FF6FD7A03E00120013D06441ED0E6
:1004D000236817F8012B1B684B451146404619D17C
:1004E000D4F8A43098475045EED8034694F8A92094
:1004F00094F8A810404602F069FE94F8A830184419
:1005000084F8A800013D4FF001000644E0D13046D8
:10051000BDE8F087114620469847D6E71646F6E72D
:10052000750400001F4B10B41A68136850681978DE
:100530000478507A137A044201EA03011AD0937ABC
:1005400003F0030309B143F0040343F008039910D7
:10055000013B91720D2B0BD8DFE803F01E07190742
:100560000A141E1E140A0719071ED368013BD36024
:1005700010BC7047937A03F003030029E7D043F0DF
:100580000403E4E7D36810BC023BD3607047D36830
:1005900010BC0233D3607047D36810BC0133D36002
:1005A000704700BFF49DFF1F1F4B10B45A681368BB
:1005B000506819780478507A137A044201EA0301EA
:1005C0001AD0937A03F0030309B143F0040343F014
:1005D00008039910013B91720D2B0BD8DFE803F053
:1005E0001E0719070A141E1E140A0719071ED368CE
:1005F000013BD36010BC7047937A03F003030029DA
:10060000E7D043F00403E4E7D36810BC023BD360B7
:100610007047D36810BC0233D3607047D36810BCF6
:100620000133D360704700BFF49DFF1F1F4B10B410
:100630009A681368506819780478507A137A0442DB
:1006400001EA03011AD0937A03F0030309B143F0DE
:10065000040343F008039910013B91720D2B0BD852
:10066000DFE803F01E0719070A141E1E140A0719F3
:10067000071ED368013BD36010BC7047937A03F028
:1006800003030029E7D043F00403E4E7D36810BC78
:10069000023BD3607047D36810BC0233D36070470D
:1006A000D36810BC0133D360704700BFF49DFF1FB7
:1006B0001F4B10B4DA681368506819780478507AC0
:1006C000137A044201EA03011AD0937A03F0030378
:1006D00009B143F0040343F008039910013B917200
:1006E0000D2B0BD8DFE803F01E0719070A141E1E96
:1006F000140A0719071ED368013BD36010BC70476A
:10070000937A03F003030029E7D043F00403E4E7FE
:10071000D36810BC023BD3607047D36810BC02336F
:10072000D3607047D36810BC0133D360704700BFFB
:10073000F49DFF1F1F4B10B41A6913685068197895
:100740000478507A137A044201EA03011AD0937AAA
:1007500003F0030309B143F0040343F008039910C5
:10076000013B91720D2B0BD8DFE803F01E07190730
:100770000A141E1E140A0719071ED368013BD36012
:1007800010BC7047937A03F003030029E7D043F0CD
:100790000403E4E7D36810BC023BD3607047D3681E
:1007A00010BC0233D3607047D36810BC0133D360F0
:1007B000704700BFF49DFF1F1F4B10B45A691368A8
:1007C000506819780478507A137A044201EA0301D8
:1007D0001AD0937A03F0030309B143F0040343F002
:1007E00008039910013B91720D2B0BD8DFE803F041
:1007F0001E0719070A141E1E140A0719071ED368BC
:10080000013BD36010BC7047937A03F003030029C7
:10081000E7D043F00403E4E7D36810BC023BD360A5
:100820007047D36810BC0233D3607047D36810BCE4
:100830000133D360704700BFF49DFF1F1F4B10B4FE
:100840009A691368506819780478507A137A0442C8
:1008500001EA03011AD0937A03F0030309B143F0CC
:10086000040343F008039910013B91720D2B0BD840
:10087000DFE803F01E0719070A141E1E140A0719E1
:10088000071ED368013BD36010BC7047937A03F016
:1008900003030029E7D043F00403E4E7D36810BC66
:1008A000023BD3607047D36810BC0233D3607047FB
:1008B000D36810BC0133D360704700BFF49DFF1FA5
:1008C0001F4B10B4DA691368506819780478507AAD
:1008D000137A044201EA03011AD0937A03F0030366
:1008E00009B143F0040343F008039910013B9172EE
:1008F0000D2B0BD8DFE803F01E0719070A141E1E84
:10090000140A0719071ED368013BD36010BC704757
:10091000937A03F003030029E7D043F00403E4E7EC
:10092000D36810BC023BD3607047D36810BC02335D
:10093000D3607047D36810BC0133D360704700BFE9
:10094000F49DFF1F1F4B10B41A6A13685068197882
:100950000478507A137A044201EA03011AD0937A98
:1009600003F0030309B143F0040343F008039910B3
:10097000013B91720D2B0BD8DFE803F01E0719071E
:100980000A141E1E140A0719071ED368013BD36000
:1009900010BC7047937A03F003030029E7D043F0BB
:1009A0000403E4E7D36810BC023BD3607047D3680C
:1009B00010BC0233D3607047D36810BC0133D360DE
:1009C000704700BFF49DFF1F1F4B10B45A6A136895
:1009D000506819780478507A137A044201EA0301C6
:1009E0001AD0937A03F0030309B143F0040343F0F0
:1009F00008039910013B91720D2B0BD8DFE803F02F
:100A00001E0719070A141E1E140A0719071ED368A9
:100A1000013BD36010BC7047937A03F003030029B5
:100A2000E7D043F00403E4E7D36810BC023BD36093
:100A30007047D36810BC0233D3607047D36810BCD2
:100A40000133D360704700BFF49DFF1F1F4B10B4EC
:100A50009A6E1368506819780478507A137A0442B1
:100A600001EA03011AD0937A03F0030309B143F0BA
:100A7000040343F008039910013B91720D2B0BD82E
:100A8000DFE803F01E0719070A141E1E140A0719CF
:100A9000071ED368013BD36010BC7047937A03F004
:100AA00003030029E7D043F00403E4E7D36810BC54
:100AB000023BD3607047D36810BC0233D3607047E9
:100AC000D36810BC0133D360704700BFF49DFF1F93
:100AD0001F4B10B4DA6E1368506819780478507A96
:100AE000137A044201EA03011AD0937A03F0030354
:100AF00009B143F0040343F008039910013B9172DC
:100B00000D2B0BD8DFE803F01E0719070A141E1E71
:100B1000140A0719071ED368013BD36010BC704745
:100B2000937A03F003030029E7D043F00403E4E7DA
:100B3000D36810BC023BD3607047D36810BC02334B
:100B4000D3607047D36810BC0133D360704700BFD7
:100B5000F49DFF1F1F4B10B41A6F1368506819786B
:100B60000478507A137A044201EA03011AD0937A86
:100B700003F0030309B143F0040343F008039910A1
:100B8000013B91720D2B0BD8DFE803F01E0719070C
:100B90000A141E1E140A0719071ED368013BD360EE
:100BA00010BC7047937A03F003030029E7D043F0A9
:100BB0000403E4E7D36810BC023BD3607047D368FA
:100BC00010BC0233D3607047D36810BC0133D360CC
:100BD000704700BFF49DFF1F1F4B10B45A6F13687E
:100BE000506819780478507A137A044201EA0301B4
:100BF0001AD0937A03F0030309B143F0040343F0DE
:100C000008039910013B91720D2B0BD8DFE803F01C
:100C10001E0719070A141E1E140A0719071ED36897
:100C2000013BD36010BC7047937A03F003030029A3
:100C3000E7D043F00403E4E7D36810BC023BD36081
:100C40007047D36810BC0233D3607047D36810BCC0
:100C50000133D360704700BFF49DFF1F1F4B10B4DA
:100C60009A6F1368506819780478507A137A04429E
:100C700001EA03011AD0937A03F0030309B143F0A8
:100C8000040343F008039910013B91720D2B0BD81C
:100C9000DFE803F01E0719070A141E1E140A0719BD
:100CA000071ED368013BD36010BC7047937A03F0F2
:100CB00003030029E7D043F00403E4E7D36810BC42
:100CC000023BD3607047D36810BC0233D3607047D7
:100CD000D36810BC0133D360704700BFF49DFF1F81
:100CE0001F4B10B4DA6F1368506819780478507A83
:100CF000137A044201EA03011AD0937A03F0030342
:100D000009B143F0040343F008039910013B9172C9
:100D10000D2B0BD8DFE803F01E0719070A141E1E5F
:100D2000140A0719071ED368013BD36010BC704733
:100D3000937A03F003030029E7D043F00403E4E7C8
:100D4000D36810BC023BD3607047D36810BC023339
:100D5000D3607047D36810BC0133D360704700BFC5
:100D6000F49DFF1F1F4B10B4D3F880201368506808
:100D700019780478507A137A044201EA03011AD0F0
:100D8000937A03F0030309B143F0040343F008032B
:100D90009910013B91720D2B0BD8DFE803F01E0771
:100DA00019070A141E1E140A0719071ED368013BEF
:100DB000D36010BC7047937A03F003030029E7D097
:100DC00043F00403E4E7D36810BC023BD3607047F0
:100DD000D36810BC0233D3607047D36810BC0133B2
:100DE000D3607047F49DFF1F1F4B10B4D3F88420CD
:100DF0001368506819780478507A137A044201EA2B
:100E000003011AD0937A03F0030309B143F00403FA
:100E100043F008039910013B91720D2B0BD8DFE8CA
:100E200003F01E0719070A141E1E140A0719071ECD
:100E3000D368013BD36010BC7047937A03F003037F
:100E40000029E7D043F00403E4E7D36810BC023B79
:100E5000D3607047D36810BC0233D3607047D36847
:100E600010BC0133D3607047F49DFF1F1F4B10B4BB
:100E70009A6A1368506819780478507A137A044291
:100E800001EA03011AD0937A03F0030309B143F096
:100E9000040343F008039910013B91720D2B0BD80A
:100EA000DFE803F01E0719070A141E1E140A0719AB
:100EB000071ED368013BD36010BC7047937A03F0E0
:100EC00003030029E7D043F00403E4E7D36810BC30
:100ED000023BD3607047D36810BC0233D3607047C5
:100EE000D36810BC0133D360704700BFF49DFF1F6F
:100EF0001F4B10B4DA6A1368506819780478507A76
:100F0000137A044201EA03011AD0937A03F003032F
:100F100009B143F0040343F008039910013B9172B7
:100F20000D2B0BD8DFE803F01E0719070A141E1E4D
:100F3000140A0719071ED368013BD36010BC704721
:100F4000937A03F003030029E7D043F00403E4E7B6
:100F5000D36810BC023BD3607047D36810BC023327
:100F6000D3607047D36810BC0133D360704700BFB3
:100F7000F49DFF1F1F4B10B41A6B1368506819784B
:100F80000478507A137A044201EA03011AD0937A62
:100F900003F0030309B143F0040343F0080399107D
:100FA000013B91720D2B0BD8DFE803F01E071907E8
:100FB0000A141E1E140A0719071ED368013BD360CA
:100FC00010BC7047937A03F003030029E7D043F085
:100FD0000403E4E7D36810BC023BD3607047D368D6
:100FE00010BC0233D3607047D36810BC0133D360A8
:100FF000704700BFF49DFF1F1F4B10B45A6B13685E
:10100000506819780478507A137A044201EA03018F
:101010001AD0937A03F0030309B143F0040343F0B9
:1010200008039910013B91720D2B0BD8DFE803F0F8
:101030001E0719070A141E1E140A0719071ED36873
:10104000013BD36010BC7047937A03F0030300297F
:10105000E7D043F00403E4E7D36810BC023BD3605D
:101060007047D36810BC0233D3607047D36810BC9C
:101070000133D360704700BFF49DFF1F1F4B10B4B6
:101080009A6B1368506819780478507A137A04427E
:1010900001EA03011AD0937A03F0030309B143F084
:1010A000040343F008039910013B91720D2B0BD8F8
:1010B000DFE803F01E0719070A141E1E140A071999
:1010C000071ED368013BD36010BC7047937A03F0CE
:1010D00003030029E7D043F00403E4E7D36810BC1E
:1010E000023BD3607047D36810BC0233D3607047B3
:1010F000D36810BC0133D360704700BFF49DFF1F5D
:101100001F4B10B4DA6B1368506819780478507A62
:10111000137A044201EA03011AD0937A03F003031D
:1011200009B143F0040343F008039910013B9172A5
:101130000D2B0BD8DFE803F01E0719070A141E1E3B
:10114000140A0719071ED368013BD36010BC70470F
:10115000937A03F003030029E7D043F00403E4E7A4
:10116000D36810BC023BD3607047D36810BC023315
:10117000D3607047D36810BC0133D360704700BFA1
:10118000F49DFF1F1F4B10B41A6C13685068197838
:101190000478507A137A044201EA03011AD0937A50
:1011A00003F0030309B143F0040343F0080399106B
:1011B000013B91720D2B0BD8DFE803F01E071907D6
:1011C0000A141E1E140A0719071ED368013BD360B8
:1011D00010BC7047937A03F003030029E7D043F073
:1011E0000403E4E7D36810BC023BD3607047D368C4
:1011F00010BC0233D3607047D36810BC0133D36096
:10120000704700BFF49DFF1F1F4B10B45A6C13684A
:10121000506819780478507A137A044201EA03017D
:101220001AD0937A03F0030309B143F0040343F0A7
:1012300008039910013B91720D2B0BD8DFE803F0E6
:101240001E0719070A141E1E140A0719071ED36861
:10125000013BD36010BC7047937A03F0030300296D
:10126000E7D043F00403E4E7D36810BC023BD3604B
:101270007047D36810BC0233D3607047D36810BC8A
:101280000133D360704700BFF49DFF1F1F4B10B4A4
:101290009A6C1368506819780478507A137A04426B
:1012A00001EA03011AD0937A03F0030309B143F072
:1012B000040343F008039910013B91720D2B0BD8E6
:1012C000DFE803F01E0719070A141E1E140A071987
:1012D000071ED368013BD36010BC7047937A03F0BC
:1012E00003030029E7D043F00403E4E7D36810BC0C
:1012F000023BD3607047D36810BC0233D3607047A1
:10130000D36810BC0133D360704700BFF49DFF1F4A
:101310001F4B10B4DA6C1368506819780478507A4F
:10132000137A044201EA03011AD0937A03F003030B
:1013300009B143F0040343F008039910013B917293
:101340000D2B0BD8DFE803F01E0719070A141E1E29
:10135000140A0719071ED368013BD36010BC7047FD
:10136000937A03F003030029E7D043F00403E4E792
:10137000D36810BC023BD3607047D36810BC023303
:10138000D3607047D36810BC0133D360704700BF8F
:10139000F49DFF1F1F4B10B41A6D13685068197825
:1013A0000478507A137A044201EA03011AD0937A3E
:1013B00003F0030309B143F0040343F00803991059
:1013C000013B91720D2B0BD8DFE803F01E071907C4
:1013D0000A141E1E140A0719071ED368013BD360A6
:1013E00010BC7047937A03F003030029E7D043F061
:1013F0000403E4E7D36810BC023BD3607047D368B2
:1014000010BC0233D3607047D36810BC0133D36083
:10141000704700BFF49DFF1F1F4B10B45A6D136837
:10142000506819780478507A137A044201EA03016B
:101430001AD0937A03F0030309B143F0040343F095
:1014400008039910013B91720D2B0BD8DFE803F0D4
:101450001E0719070A141E1E140A0719071ED3684F
:10146000013BD36010BC7047937A03F0030300295B
:10147000E7D043F00403E4E7D36810BC023BD36039
:101480007047D36810BC0233D3607047D36810BC78
:101490000133D360704700BFF49DFF1F1F4B10B492
:1014A0009A6D1368506819780478507A137A044258
:1014B00001EA03011AD0937A03F0030309B143F060
:1014C000040343F008039910013B91720D2B0BD8D4
:1014D000DFE803F01E0719070A141E1E140A071975
:1014E000071ED368013BD36010BC7047937A03F0AA
:1014F00003030029E7D043F00403E4E7D36810BCFA
:10150000023BD3607047D36810BC0233D36070478E
:10151000D36810BC0133D360704700BFF49DFF1F38
:101520001F4B10B4DA6D1368506819780478507A3C
:10153000137A044201EA03011AD0937A03F00303F9
:1015400009B143F0040343F008039910013B917281
:101550000D2B0BD8DFE803F01E0719070A141E1E17
:10156000140A0719071ED368013BD36010BC7047EB
:10157000937A03F003030029E7D043F00403E4E780
:10158000D36810BC023BD3607047D36810BC0233F1
:10159000D3607047D36810BC0133D360704700BF7D
:1015A000F49DFF1F1F4B10B41A6E13685068197812
:1015B0000478507A137A044201EA03011AD0937A2C
:1015C00003F0030309B143F0040343F00803991047
:1015D000013B91720D2B0BD8DFE803F01E071907B2
:1015E0000A141E1E140A0719071ED368013BD36094
:1015F00010BC7047937A03F003030029E7D043F04F
:101600000403E4E7D36810BC023BD3607047D3689F
:1016100010BC0233D3607047D36810BC0133D36071
:10162000704700BFF49DFF1F1F4B10B45A6E136824
:10163000506819780478507A137A044201EA030159
:101640001AD0937A03F0030309B143F0040343F083
:1016500008039910013B91720D2B0BD8DFE803F0C2
:101660001E0719070A141E1E140A0719071ED3683D
:10167000013BD36010BC7047937A03F00303002949
:10168000E7D043F00403E4E7D36810BC023BD36027
:101690007047D36810BC0233D3607047D36810BC66
:1016A0000133D360704700BFF49DFF1F2DE9F8435D
:1016B0000446134D2560002604F108051148C4F8BE
:1016C000A4002671284684F8A86084F8A9601F4603
:1016D000164689469DF8208001F066FF0A4B23607C
:1016E00049462846094B0A4A01F022FB2846434650
:1016F0003A46314601F00CFA2046BDE8F88300BFB7
:10170000FC7C000099350000147D0000092A0000CF
:10171000212B0000F8B5044615460E460846022166
:1017200003F09EFE2846022103F09AFE9C4A9D4B40
:1017300052F83610012001F500772760207252F828
:101740003520607202F5007700206760E060013BA1
:10175000FDD191F8003292F8002203F00103D20784
:1017600044BF43F00203DBB2A372212E00F24A838E
:10177000DFE816F03D0334032B03220319031003A3
:101780000703FE02F502EC02E302DA028D02840294
:101790007B0272026902600257024E0245023C025D
:1017A00033022A02210218020F020602FD01F4018F
:1017B000EB01E201D80122007B4B7C49C3F8844055
:1017C0000422212003F066FD01232374212D00F261
:1017D0001783DFE815F09D01930189017F017501F1
:1017E0006B01610157014D01430139012F012501B1
:1017F0001B011101DB00D100C700BD00B300A9002F
:101800009F0095008B00810077006D0063005900F8
:101810004F0045003B0030002200634B6349C3F892
:1018200084400422212003F035FD237C012213444F
:1018300023742046F8BD5C4B5D49C3F88040042208
:10184000202003F027FD237C0122F0E7564B594965
:10185000DC6704221F2003F01DFD237C0122E6E744
:10186000514B55499C6704221E2003F013FD237C35
:101870000122DCE74C4B51495C6704221D2003F038
:1018800009FD237C0122D2E7474B4D491C67042206
:101890001C2003F0FFFC237C0122C8E7424B49498E
:1018A000DC6604221B2003F0F5FC237C0122BEE74A
:1018B0003D4B45499C6604221A2003F0EBFC237C37
:1018C0000122B4E7384B41495C660422192003F039
:1018D000E1FC237C0122AAE7334B3D491C6604222C
:1018E000182003F0D7FC237C0122A0E72E4B3949B6
:1018F000DC650422172003F0CDFC237C012296E74F
:10190000294B35499C650422162003F0C3FC237C37
:1019100001228CE7244B31495C650422152003F039
:10192000B9FC237C012282E71F4B2D491C65042250
:10193000142003F0AFFC237C012278E71A4B2949DD
:10194000DC640422132003F0A5FC237C01226EE753
:10195000154B25499C640422122003F09BFC237C38
:10196000012264E7104B21495C640422112003F03A
:1019700091FC237C01225AE70B4B1D491C64042275
:10198000102003F087FC237C012250E7064B194905
:10199000DC6304220F2003F07DFC237C012246E758
:1019A000F87E000080380100F49DFF1FE90D000063
:1019B000650D0000E10C00005D0C0000D90B00007B
:1019C000550B0000D10A00004D0A00002916000046
:1019D000A5150000211500009D1400001914000039
:1019E00095130000111300008D1200000912000071
:1019F0008511000001110000A94BAA499C63042233
:101A00000E2003F047FC237C012210E7A44BA649DB
:101A10005C6304220D2003F03DFC237C012206E7D9
:101A20009F4BA2491C6304220C2003F033FC237C4F
:101A30000122FCE69A4B9E49DC6204220B2003F053
:101A400029FC237C0122F2E6954B9A499C620422F0
:101A50000A2003F01FFC237C0122E8E6904B964904
:101A60005C620422092003F015FC237C0122DEE6DF
:101A70008B4B92491C620422082003F00BFC237C50
:101A80000122D4E6864B8E49DC610422072003F054
:101A900001FC237C0122CAE6814B8A499C61042215
:101AA000062003F0F7FB237C0122C0E67C4B86492D
:101AB0005C610422052003F0EDFB237C0122B6E6E5
:101AC000774B82491C610422104603F0E3FB237C20
:101AD0000122ACE6724B7E49DC600422032003F055
:101AE000D9FB237C0122A2E66D4B7A499C6004223B
:101AF000022003F0CFFB237C012298E6684B764955
:101B00005C600422012003F0C5FB237C01228EE6E9
:101B1000634B72491C600422002003F0BBFB237C52
:101B2000012284E65E4B6E49C3F8804004222020E7
:101B300003F0B0FB012348E6594B6A49DC670422F5
:101B40001F2003F0A7FB01233FE6554B66499C6726
:101B500004221E2003F09EFB012336E6504B63490E
:101B60005C6704221D2003F095FB01232DE64C4BFE
:101B70005F491C6704221C2003F08CFB012324E630
:101B8000474B5C49DC6604221B2003F083FB0123E6
:101B90001BE6434B58499C6604221A2003F07AFB4B
:101BA000012312E63E4B55495C660422192003F0DE
:101BB00071FB012309E63A4B51491C6604221820A7
:101BC00003F068FB012300E6354B4E49DC65042237
:101BD000172003F05FFB0123F7E5314B4A499C6571
:101BE0000422162003F056FB0123EEE52C4B474957
:101BF0005C650422152003F04DFB0123E5E5284B2D
:101C000043491C650422142003F044FB0123DCE556
:101C1000234B4049DC640422132003F03BFB0123E7
:101C2000D3E51F4B3C499C640422122003F032FB95
:101C30000123CAE51A4B39495C640422112003F0E0
:101C400029FB0123C1E5164B35491C6404221020F1
:101C500003F020FB0123B8E5114B3249DC63042279
:101C60000F2003F017FB0123AFE50D4B0D499C63DB
:101C700004220E2003F00EFB0123A6E5084B0A49BF
:101C80005C6304220D2003F005FB01239DE5044B5A
:101C900006491C6304220C2003F0FCFA012394E59E
:101CA000F49DFF1F7D100000F90F0000750F00006C
:101CB000F10E00006D0E0000C9090000450900008A
:101CC000C10800003D080000B9070000350700000A
:101CD000B10600002D060000A90500002505000042
:101CE000650D0000E10C00005D0C0000D90B000048
:101CF000550B0000D10A00004D0A00002916000013
:101D0000A5150000211500009D1400001914000005
:101D100095130000111300008D120000091200003D
:101D20008511000001110000374B3849DC620422A4
:101D30000B2003F0AFFA012347E5334B34499C6293
:101D400004220A2003F0A6FA01233EE52E4B314976
:101D50005C620422092003F09DFA012335E52A4B39
:101D60002D491C620422082003F094FA01232CE57B
:101D7000254B2A49DC610422072003F08BFA01235A
:101D800023E5214B26499C610422062003F082FAB8
:101D900001231AE51C4B23495C610422052003F052
:101DA00079FA012311E5184B1F491C6104221046E2
:101DB00003F070FA012308E5134B1C49DC60042290
:101DC000032003F067FA0123FFE40F4B18499C60DE
:101DD0000422022003F05EFA0123F6E40A4B1549BF
:101DE0005C600422012003F055FA0123EDE4064B68
:101DF00011491C600422002003F04CFA0123E4E4A2
:101E0000002214E50023E0E4F49DFF1FF10E000022
:101E10006D0E0000C909000045090000C10800005E
:101E20003D080000B907000035070000B1060000BA
:101E30002D060000A90500002505000038B5022187
:101E40000F2003F00DFB0221172003F009FB0221F4
:101E5000092003F005FB0221062003F001FB02210B
:101E6000032003F0FDFA0221002003F0F9FA022119
:101E7000142003F0F5FA0221212003F0F1FA144AAC
:101E8000144D154B1278154C85F82C201B7884F8CE
:101E90002C300835284601F047FD2846083400F06C
:101EA00031FF0021284601F047FD204601F03CFDAE
:101EB000204600F027FF2046002101F03DFD0D21C6
:101EC000074804F023FB0748BDE8384002F0E0BFB4
:101ED0002088FF1F6098FF1F2188FF1F349CFF1F71
:101EE000247D00009C8EFF1F2DE9F047002484B064
:101EF0009A4D9B4EA1464FF0010807E0286801F07B
:101F0000B5FDD0B9082C06F1040621D055F8040F10
:101F100001F07CFD286801F09FFDE7B20134002844
:101F2000ECD090480022394600F05CFDC6F80090E5
:101F3000286801F09BFD0028E4D039460122894839
:101F400000F050FD082CC6F8008006F10406DDD133
:101F50000024854D854EA0466FF07E0718E072B6CE
:101F6000C36862B646F8043F7BB17F2BA8BF7F23CE
:101F7000BB421A46B8BF3A4652B27A4800F024FD36
:101F80002B6872B6C3F80C8062B60134082C51D0AD
:101F900055F8040F037C012BE1B2E0D872B690E84B
:101FA0000C0092F800C093F800E0437A027A1EEA2F
:101FB000030F0CEA020200F0C880837A03F00303E7
:101FC0000AB143F0040343F008039A10013B827204
:101FD0000D2BC5D801A252F823F000BF2D20000020
:101FE000252000001D20000025200000611F0000AA
:101FF000152000002D2000002D20000015200000DD
:10200000611F0000252000001D2000002520000089
:102010002D200000C368023BC360A2E7C3680233FF
:10202000C3609EE7C368013BC3609AE7C36801339E
:10203000C36096E74B48814600F0BAFC4C4800F07C
:1020400021FE4FF00F0801274FF0000A09EB8A1616
:1020500006F21316002416F8015F45480121BDB1B0
:1020600001F072F9C5F1100502233A4621464048B5
:10207000CDF8008000F0A4FDEDB202213C4801F053
:1020800063F9009502233A462146394800F098FD4D
:102090000234E4B2802CDED10AF1010A0F37BAF122
:1020A000040FFFB2D2D1324800F002FE0028CAD19C
:1020B000304800F0E7FD4FF00F0801274FF0040A09
:1020C00009EB8A1606F21316002416F8015F294858
:1020D0000121BDB101F038F9C5F1100502233A46DE
:1020E00021462448CDF8008000F06AFDEDB20221BF
:1020F000204801F029F9009502233A4621461D485F
:1021000000F05EFD0234E4B2802CDED10AF1010A57
:102110000F37BAF1080FFFB2D2D1164800F0C8FD50
:102120000028CAD1144D154C2B680293029B2268DB
:102130009B1A322B06D90B4800F0EEF82B6803935C
:10214000039B236004B0BDE8F087837A03F00303A8
:10215000002A3FF43AAF43F0040336E7FC87FF1F41
:10216000549DFF1F1C99FF1F2088FF1F0C9DFF1F00
:102170006898FF1F3C9CFF1FC89EFF1F509DFF1FBC
:10218000F0B5474C4748484E8DB000F0B7F823688B
:102190000393464B039A1A60FF25314600952B4660
:1021A0002A464348FFF782FA2B46009531462A46D5
:1021B0004048FFF77BFA112210213F48FFF7AAFAA7
:1021C0000E220C213D48FFF7A5FA0B220A213C48BC
:1021D000FFF7A0FA082207213A48FFF79BFA2022CE
:1021E0001F213948FFF796FA152216213748FFF7C5
:1021F00091FA012202213648FFF78CFA04220521C8
:102200003448FFF787FA0A220F21334801F0C8FB50
:102210000A221721314801F0C3FB0A220921304864
:1022200001F0BEFB0A2206212E4801F0B9FB0A226A
:1022300021212D4801F0B4FB0A2214212B4801F082
:10224000AFFB0A2200212A4801F0AAFB0A2203213F
:10225000284801F0A5FB23680493049A236805939A
:10226000DDF814E023680693069F23680793079E12
:1022700023680893089D23680993099823680A93A3
:102280000A991D4B24680B941A600B9AC3F804E05A
:102290009F60DE601D6158619961DA610DB0F0BD2B
:1022A000C89EFF1F1C99FF1F407D0000509DFF1F0F
:1022B0006098FF1F349CFF1F9497FF1FA897FF1F74
:1022C000BC97FF1FD097FF1F1C98FF1F0898FF1F88
:1022D0008097FF1FE497FF1F409DFF1F5098FF1F2F
:1022E0000C99FF1FF897FF1FE09CFF1FF09CFF1F3A
:1022F000009DFF1F309DFF1F3098FF1F0022C0F878
:102300009C20C0F8A020C0F80C21C0F8102180F853
:10231000142380F8152370472DE9F04190F8153308
:102320008AB00646002B00F08C804FF000081A237C
:102330000DF107048DF804308DF805808DF80680C6
:1023400027464FEA081303F108053544334439465C
:1023500093F8140193F81521023342EA00129D42CA
:1023600001F8012BF4D108F10108B8F1080F07F1C9
:102370000407E6D101AD2846232104F0C7F8002761
:102380008DF80580A4463B0103F1080EB6443344A2
:10239000614693F81C0193F81D21023342EA0012B2
:1023A0009E4501F8012BF4D10137082F0CF1040CE4
:1023B000E9D12321284604F0A9F800238DF80670FE
:1023C0008DF80530A4463B0103F1080EB6443344B2
:1023D000614693F8140193F81521023342EA001282
:1023E0009E4501F8012BF4D10137102F0CF1040C9C
:1023F000E9D12321284604F089F84FF0080E8DF822
:1024000005E04FEA0E1303F1080737443344214631
:1024100093F81C0193F81D21023342EA00129F42F7
:1024200001F8012BF4D10EF1010EBEF1100F04F1F1
:102430000404E6D12846232104F068F8002386F836
:10244000153396F81433002B00F0B2800DF12808F4
:10245000002308F8233D92238DF804304146374687
:102460000DF12504334693F8140193F8152142EA3F
:10247000001201F8012FA14203F10203F3D101ADD3
:102480002221284604F042F801238DF80530414608
:10249000334693F8540193F8552142EA001201F8AB
:1024A000012FA14203F10203F3D12221284604F0B7
:1024B0002DF802238DF805304146334693F89401F8
:1024C00093F8952142EA001201F8012FA14203F18D
:1024D0000203F3D12221284604F018F803238DF8D3
:1024E00005304146334693F8D40193F8D52142EAAA
:1024F000001201F8012FA14203F10203F3D12221BE
:10250000284604F003F804238DF80530414633468D
:1025100093F8140293F8152242EA001201F8012FF1
:10252000A14203F10203F3D12221284603F0EEFF7A
:1025300005238DF805304146334693F8540293F84D
:10254000552242EA001201F8012FA14203F10203D1
:10255000F3D12221284603F0D9FF06238DF8053058
:102560004146334693F8940293F8952242EA0012CA
:1025700001F8012FA14203F10203F3D122212846E1
:1025800003F0C4FF07238DF8053097F8D42297F89D
:10259000D53243EA021308F8013F444507F1020728
:1025A000F3D12846222103F0B1FF002386F814332B
:1025B0000AB0BDE8F08100BFF0B585B09F4905467F
:1025C000684602F0B5FC03F03BFFC0B2932800F26E
:1025D0009F80DFE810F094019E01B50167016C0156
:1025E0009400A2009D00A2009D009D009D009D0002
:1025F0009D009D009D009D009D009D009D009D00F3
:102600009D009D009D009D009D009D009D009D00E2
:102610009D009D009D00B200D3009D009D009D0087
:102620009D009D009D009D009D009D009D009D00C2
:102630009D009D009D009D009D009D009D009D00B2
:102640009D009D009D009D009D009D009D009D00A2
:102650009D009D009D009D009D009D009D009D0092
:102660009D009D009D009D009D009D009D009D0082
:102670009D009D009D007301AB00AB009D009D007F
:102680009D009D009D009D009D009D009D009D0062
:102690009D009D009D009D009D009D009D009D0052
:1026A0009D009D009D009D009D009D009D009D0042
:1026B0009D009D009D009D009D009D009D009D0032
:1026C0009D009D009D009D009D009D009D009D0022
:1026D0009D009D009D009D009D009D009D009D0012
:1026E0009D009D009D009D009D009D009D009D0002
:1026F0009D009D009D00C2014D012701F4000320B3
:1027000003F088FF002003F085FF002003F082FF24
:10271000684602F0CDFB05B0F0BD03F091FE03F07A
:102720008FFE684602F0C4FB05B0F0BD03F088FEE2
:10273000684602F0BDFB05B0F0BD03F081FE044623
:1027400003F07EFED5F89C103129E1DCD5F8A030ED
:102750003B4ACE1882FB0623F217C2EB2312322328
:1027600003FB1263DBB203EB43032B440131002272
:10277000DC7018715A71C5F89C10C9E703F060FE4F
:10278000044603F05DFED5F89C103129C0DCD5F875
:10279000A0302B4ACE1882FB0623F217C2EB23127D
:1027A000322303FB1263DBB203EB43032B440131FF
:1027B0000122DC7018715A71C5F89C10A8E703F06B
:1027C0003FFE074603F03CFEC4B203F039FEC6B23A
:1027D00003F036FEB442C0B2C0F0D4803F2C0FD814
:1027E000B90101F47F516318B3F5007FB8BF5B19DD
:1027F00004F10102D4B2B8BF83F81401402CF2D125
:10280000002E85D0BB0103F47F531C4425440023D4
:102810000133B4F5007FDAB2B8BF85F814019642EF
:10282000F6D875E703F00CFE800100F47F5606F53C
:102830008A731D4400240F2012E000BF347D000085
:102840001F85EB51321910F00F03B2F5007F04F130
:10285000010438BF2B70402C05F101053FF458AF3F
:10286000E307EFD403F0ECFDC0B232190309ECE743
:1028700003F0E6FD044603F0E3FDA20102F47F52FB
:10288000494C02F58A7302F5AA72C0B22B44A9180A
:10289000641BE218B2F5007FB8BF1870013399428B
:1028A000F7D135E7022003F0B5FE012028E703F059
:1028B000C7FD03F0C5FD03F0C3FD29E703F0C0FD2C
:1028C000044603F0BDFDD5F80C1131293FF720AFC8
:1028D000D5F81031354ACE1882FB0623F217C2EB29
:1028E0002312322303FB1263DBB205EB43030131F6
:1028F00083F8A64083F8A700C5F80C1108E700206C
:1029000003F088FE052003F085FE082003F082FE18
:10291000FEE6012003F07EFE002408E002F01CFB2E
:10292000007803F077FE0134202C3FF4F1AE029BD7
:10293000A34221466846F1D8202003F06BFEF2E75F
:1029400000242146684602F007FB054603F078FDA7
:102950000134202C2870F4D1DAE603F071FD04462E
:1029600003F06EFD064603F06BFDA30103F47F53F5
:1029700053FA86F3B3F5007FBFF6CAAE2B4483F853
:102980001401C5E6BA0102F47F52A318B3F5007F23
:10299000B8BF5B1904F10101CCB2B8BF83F81401D0
:1029A000A642F2D8B4E600BFECFEFFFF1F85EB5154
:1029B00010B5044602E02046FFF7FEFD03F07CFD63
:1029C0000028F8D110BD00BF38B550200D46144680
:1029D00003F020FE284603F01DFEE0B2BDE83840BB
:1029E00003F018BE00B5012A83B00B460CBF52227B
:1029F0005122022101A88DF804208DF8053003F042
:102A000085FD03B05DF804FB30B5A1F1280383B068
:102A10000546252B14D8DFE803F05A2E2B2B4751FF
:102A20001313131313131313131313131313131376
:102A30001313131313131313131313131313343424
:102A40003F295ED901F03F016B1893F82D00FF2854
:102A50000ED00F2957D9102903D1019003F05AFE47
:102A6000019802F0EFFC003018BF012085F8280023
:102A7000012003B030BD104602F01AFD012003B062
:102A800030BD01F03F0101920D44002A32D10121F5
:102A900095F82D0002F0E4FC019A95F82D001146FE
:102AA00002F0CAFC0120E4E7002A14BF2822002219
:102AB000002ADDD0013AFDD10120DAE7022A8CBFDD
:102AC0005023C823013BFDD1012003B030BD2C357C
:102AD000002415F8013FFF2B4FF00101184605D0E7
:102AE0000F2C84BF1846022102F0BAFC0134162CC8
:102AF000EFD1BDE795F82D00022102F0B1FC0120D5
:102B0000B7E70020B5E7114602F096FC0120B0E7D8
:102B100080F8381080F8392080F83A30704700BFCC
:102B200030B5143987B005460C2940D8DFE801F0EC
:102B3000193F3F07300E3F3F3F3F3F3F0B001946D5
:102B40001C4801F007F8012007B030BD19480023E8
:102B5000427B01690093012301F058FC012007B07A
:102B600030BD2B6813485A7B134B417B006904939B
:102B700003FB02F201240023AA610594039302934C
:102B8000019300931A4601F0DDF9204607B030BDED
:102B9000084CAA692069094901F062F995F82410E6
:102BA0002046490801F0D0FA012007B030BD0020CE
:102BB000CAE700BF909EFF1FA08601000087930315
:102BC0002DE9F04383B01F469DF828505319DBB21E
:102BD00001EB070E00935FFA8EF314460E46804613
:102BE00000F0BAFB80B17DB14FF000093B462246B0
:102BF000CDF800903146404600F098FB6B1E013442
:102C000013F0FF05E4B2F1D103B0BDE8F08300BFDB
:102C10002DE9F043036890F8508093F8119090F8F4
:102C2000517083B00646002502E0994518D93368F3
:102C30001B7CF06CD90005FB01F14FF6F872ECB289
:102C40000A4002443919013400923046CAB20135B3
:102C50000021E4B200F04CFE7B19A045DBB2E4D8C1
:102C600003B0BDE8F08300BF10B5836C80F851104D
:102C700004461B689847A36C20465B68BDE810407B
:102C8000184700BF10B590F89B30044653B1026856
:102C900090F85030127CC06C12FB03F2D20000217D
:102CA00004F04CFB20460021BDE81040FFF7DCBFDC
:102CB00038B50546FFF7ACFF95F8514095F8503010
:102CC0002A681C44517CE4B2A14216D995F89B10A5
:102CD00029B928462146FFF7C7FF012038BD127CDD
:102CE000E86C12FB03F2D200002104F027FB284617
:102CF0002146FFF7B9FF012038BD284600F024FE29
:102D0000002038BD10B50446FFF7BCFF2046FFF792
:102D1000CFFF0028FAD101462046BDE81040FFF75A
:102D2000A3BF00BF0123037000487047749DFF1FBD
:102D300030B585B00D46009309491346094A04464B
:102D400000F010FE0DF10F00FFF7ECFF9DF80F20D3
:102D500000950146044B204600F0F4FB05B030BD61
:102D600045380000E9360000A53300004318405CF8
:102D70005B7803EB002080B2704700BF012B0BD0C3
:102D800007D3022B02D1801AC0B27047401AC0B2DA
:102D900070471044C0B270470844C0B2704700BFCB
:102DA000012B0BD007D3022B02D1401AC0B27047BF
:102DB0001044C0B270470844C0B27047801AC0B215
:102DC000704700BF70B490F88020C166002380F87F
:102DD0007630072A0D7836D90131A2F10803C16691
:102DE000DBB2012404FA02F2013A90F8816080F823
:102DF00076302A4080F87420F5180A78EDB2072D55
:102E000042FA03F221D94C1CC466C3F108044B7882
:102E1000E1B203FA01F1083D1143EDB2C9B290F8F5
:102E20009A4080F87650012202FA06F3013BB4FA88
:102E300084F20B40520980F8784080F8753080F8B1
:102E4000792070BC70471346CBE7D1B2E7E700BFEB
:102E50000020704770B4827A05688C182B78E4B231
:102E6000072C43FA02F30AD96E1C0660C2F108026D
:102E70006D78D2B205FA02F2083C1343E4B20125A0
:102E800005FA01F20139DBB2013AC9B205FA01F1E2
:102E90001A408472531A58B270BC70472DE9F04F33
:102EA00087B005460F4690F8729090F873A005928F
:102EB0000EE095F87720002A46D0A7420AF10103D8
:102EC000A7EB040438D3E7B25FFA83FA4FF00009A6
:102ED00095F87A8095F8713003934FFA89F64FFA96
:102EE0008AFB434631465A4695F8700095F874407F
:102EF000FFF756FFC9EB0404049043465A46314697
:102F00000398FFF73BFFE4B2059AA7423B4628BF70
:102F10002346002ACDD095F87860CDF8008002468F
:102F2000049985F89A60284600F000FAA7420AF151
:102F30000103A7EB0404C6D24F4485F8727085F8EC
:102F400073B007B0BDE8F08F95F87960E5E700BF92
:102F50002DE9F04F044685B000F16C07FFF732FF12
:102F600094F9753094F88210029338461E46FFF7A4
:102F700071FF94F8831082463846FFF76BFF94F890
:102F8000841005463846FFF765FF94F97480039076
:102F9000B8F1000F2ADD5FFA86FB5D4494F87A7081
:102FA00094F870006D426DB22A463B465146FFF7D9
:102FB000F7FE2A4684F870008146514694F8710065
:102FC0003B46FFF7DBFE024684F87100032F00F258
:102FD000B680DFE807F0747B870F94F973200299BD
:102FE0008A4220DB94F8783084F89A30039805B050
:102FF000BDE8F08FC8F1010101440BEB090301307A
:10300000CAB2DBB2C1B200912046494600F0A4F931
:103010000028EBD0002294F8763084F8722084F8EF
:1030200073204FF0010894F87E00E56EC2182978ED
:10303000D2B2072A41FA03F163D8CFB294F87F10D5
:1030400084F876208B1808FA00F095F800E0DBB2DF
:103050000138072B07EA00074EFA02F061D8C5B223
:1030600008FA01F101390D4084F8763004E0D2B25B
:10307000D20784F87630B0D5002239462046FFF7D3
:103080000DFF012229462046FFF708FF94F876102D
:10309000E66E4B1C3278DBB2C1F10800072B06F15B
:1030A000010C42FA01F2C0B2E1D9C4F86CC07378E5
:1030B00003FA00F00243CB1FD2B2DBB2D8E709EB30
:1030C00008030BEB0001DBB2C9B29CE7CBF10100B6
:1030D00009F10103484402EB08015FFA80F9DBB211
:1030E000C9B290E7C8F10105CBF1010009F1010374
:1030F000511C4D4410445FFA85F9DBB2C2B2C9B22B
:1031000081E705F1010EC4F86CE06D78C3F10803A6
:10311000DBB205FA03F3083A1943D2B2CFB27546CF
:103120008CE705F1010EC4F86CE0C2F108026D787D
:10313000D2B29540083B0543DBB2EDB290E70146C1
:103140004B4660E738B5436EFF2903F1170311D8EA
:10315000602934D8402984BFB0F88E209B18587855
:1031600018B92BE00344587878B31A788A42F9D119
:10317000981C38BDB0F892209C180D462246104687
:103180000021FFF7F3FD022104441046FFF7EEFD96
:10319000854202F10402F2D82078627852EA0020D7
:1031A0000CD0854202D10EE09D420CD0A3781C4485
:1031B0002078637853EA0023F6D1184638BDB0F87A
:1031C00090201344CBE7E01C38BD38BD2DE9F04119
:1031D00090F87A6004460F4615469846032E07D8A5
:1031E000DFE806F0201B1602826E90473844C7B213
:1031F00084F8707084F8715041462046FFF7A2FFB2
:1032000020B101462046FFF7A3FEC0B2BDE8F08121
:10321000836E9847281AC5B2EAE7836E9847381A32
:10322000C7B2E5E7836E98472844C5B2E0E700BF20
:10323000014B8366704700BF512E000030B4012B54
:103240009DF8084003D9022C1BD0032C44D0E4077E
:103250001BD590F859408C4211D890F85A408C42B6
:103260000DD91344DBB2934290F85B5090F85C4068
:103270003CD2944239D9631EDBB29D423DD330BC6F
:1032800070470131C91A01F0FF0190F85B40944288
:10329000F5D890F85C409442F1D90B44DBB28B42F4
:1032A00090F8595090F85A4024D28C4221D9631E8C
:1032B000DBB29D42E3D2A94238BF29469C4294BF6B
:1032C000C1EB0403C1EB0303DBB20025846C029560
:1032D000A468A44630BC604790F859400132D21A25
:1032E0008C4202F0FF02B8D9C9E72A469442C6D9F7
:1032F000C3E729468C42C2D9DBE7AA4238BF2A4637
:103300009C4294BFC2EB0403C2EB0303DBB2012572
:10331000DCE700BF70B490F85440456C9DF80C6039
:103320000396121BAC46D2B270BC604770B490F8E2
:1033300094409DF80C6024B11BB1039670BCFFF75C
:103340007DBF70BC704700BF02298ABF012380F88F
:103350009A1080F89A30704770B490F85C6090F8DA
:103360005B509DF80C4096420CD9A5420CD290F8C7
:103370005A4090F859208C420BD99A420BD2012026
:1033800070BC7047A54201D2A242F0D8002070BCA8
:1033900070479A42FAD2994294BF0020012070BC33
:1033A000704700BFF0B590F89A509DF8147002F085
:1033B00007060124B440012D8E46E4B23AD9002517
:1033C000016891F810C002F0F8020CFB02E1C26C37
:1033D00011448FB95A1ED2B201320A440B782B43E2
:1033E000634001F8013B8A42F8D1F0BD08BF1546A1
:1033F00001D001242546BBB10A7801362A43624038
:10340000013B16F007060A70DBB24FEA45074FEAA8
:1034100044020AD190F89A2090F85270012A394457
:10342000E4D90124002BE7D1F0BDFDB2D4B2002BCA
:10343000E2D1F9E7254608BF0024C1E770B490F84F
:103440005050046890F85160EB00DBB280F85330C4
:10345000217C1F2928BF1F21F200C900D2B280F8A9
:10346000521080F85420617C35448D4202DD8B1B64
:10347000DB00DBB21344F02180F8571080F856309F
:1034800080F85520A38A8B4298BF80F85730E38A92
:1034900080F8583070BC704710B49DF80440019417
:1034A00010BCFFF737BF00BF30B583B090F8605055
:1034B00090F85E3090F85F2090F85D10009504461B
:1034C000FFF74AFF20B394F85D3094F859209A42F0
:1034D00038BF84F8593094F85A2094F85E309A42F4
:1034E00088BF84F85A3094F85B2094F85F309A4291
:1034F00038BF84F85B3094F85C2094F86030012188
:103500009A4284F8941088BF84F85C3003B030BDD0
:1035100084F8940003B030BD30B490F8551090F8A2
:10352000524090F8562080F85A40002580F85950B3
:1035300080F85B1080F85C2030BCFFF7B5BF00BF9F
:10354000FFF77CBFF8B5069E80F8502000250127C4
:10355000044680F8515080F8775080F8995080F8F0
:103560009A7080F89B70C1644364456686643368D2
:103570009847A26C84F85D50FF2384F85F5084F86C
:103580005E3084F860305368204698472046FFF745
:103590004FFE84F87A50F8BD11B94FF6FF707047AE
:1035A0000A29FAD088B27047002380F82730704784
:1035B00010B404691346A4460A4610BC172160479C
:1035C00000B583B002AA02F8011D0121FFF7F0FF48
:1035D00003B05DF804FB00BF10B404690023A446E7
:1035E0001A46182110BC604710B404690023A44691
:1035F0001A46192110BC604770B5044616460D46A0
:10360000FFF7EAFF20464021FFF7DAFF33462A465C
:10361000204625691721A8472046BDE87040FFF7DE
:10362000E3BF00BF10B4C4680A46A44600231521B6
:1036300010BC604710B4C4680A46A4460023162193
:1036400010BC604710B4C4681346A4460A4610BCB8
:103650001721604710B4C4680023A4461A461821F5
:1036600010BC604710B4C4680023A4461A46192150
:1036700010BC604770B5064682B00D462C78172CFA
:1036800013D01DD90023192C1A462146304626D9BD
:10369000FE2C4FF0290120D16A788DF807200235E1
:1036A00000F05AF92C78172CEBD16B788DF8073095
:1036B0000DF10702012130460235FFF7C3FFDDE7B8
:1036C000152C4FF000032146304606D36A788DF85A
:1036D0000720F4680235A047D0E702B070BDF46857
:1036E0000135A047CAE700BF143970B50646144635
:1036F0001D46052931D8DFE801F02213130A2020E6
:1037000018213046FFF778FF183CE4B21835182C22
:103710002A46F5D830462146FFF76EFF012070BDDE
:10372000FFF75AFF00213046FFF74AFF2146304697
:10373000FFF746FF3046FFF757FF012070BD90F8B6
:1037400024300469FF2B04BF782380F82430A4467A
:103750002B461421BDE870406047002070BD00BFBB
:103760000B39F8B5054614461E46042952D8DFE841
:1037700001F0415147320300FFF76CFF95F822300A
:10378000777903EBC70707F0FF0740212846FFF7CB
:1037900049FF390941F010012846FFF743FF07F0C0
:1037A0000F012846FFF746FFB179284641F0B001E6
:1037B000FFF740FF31793268C90001F0F80128466F
:1037C000FFF740FF621E12F0FF04F3D12846FFF717
:1037D00049FF0120F8BDFFF73DFF81212846FFF793
:1037E00021FF21462846FFF725FF2846FFF73AFF2D
:1037F0000120F8BDCAB90F49FFF73CFF0120F8BD11
:1038000052B90D49FFF736FF2B689B7C85F82230B3
:103810000120F8BD0020F8BD0849FFF72BFF2B68F9
:10382000DB7C85F822300120F8BD0549FFF722FF37
:103830000120F8BD647D0000747D0000B47D0000AF
:103840006C7D000038B505460C46FFF789FF90B93E
:10385000092C0AD00A2C0FD1284600F019F8284666
:103860000649FFF707FF012038BD2846044900F04C
:1038700009F8012038BD012038BD00BF7C7D000063
:103880004C7D000001608B7C80F82230704700BFC7
:1038900038B5002304461A4645692821A847002365
:1038A0001A46E56820461421A847204601224B21EC
:1038B00000F052F8236820461A79292100F04CF8CC
:1038C000204600224B2100F047F8236820461A7951
:1038D000292100F041F8204601224B2100F03CF85C
:1038E000236820465A792921BDE8384000F034B8D1
:1038F00030B583B002AC069D44F8085D8DF8051024
:103900008DF806208DF804308568234601220F21AA
:10391000A84703B030BD00BF10B484680023A4469C
:103920001A46092110BC604710B484680023A446DD
:103930001A460A2110BC604710B484680A46A4469F
:1039400000230B2110BC604710B484680023A446F8
:103950001A46102110BC604710B444690023A446E5
:1039600010BC6047F0B4049F0024FF25046080F879
:10397000234080F8264080F8274080F8245080F8C3
:10398000295000F12C0400F1420604F8015FB44212
:10399000FBD147618160C2600361F0BCFFF7BCBF2F
:1039A00030B5094B426083B01B6801930D46019B03
:1039B0000360002104468160284601F043FD207326
:1039C0002046657303B030BDC89EFF1F30B5044666
:1039D00083B0407B01F036FD237B834210D00A4A3E
:1039E000256813680093009B61685B1B8B4207D3BB
:1039F00013680193019B20730120236003B030BD45
:103A0000002003B030BD00BFC89EFF1F30B583B09B
:103A10000446FFF7DBFFB0B9A3681BB90023A3730B
:103A200003B030BD0B4925680A680092009A521B0A
:103A30009342F3D80B680193019BA060012023609F
:103A4000A07303B030BD01200023A360A07303B0B6
:103A500030BD00BFC89EFF1F837B23B1007B0030B9
:103A600018BF012070471846704700BF837B23B101
:103A7000007BB0FA80F0400970471846704700BFDD
:103A800010B4047F4160022CC26002D010BC01F06F
:103A900013B9836810BC18470369D3F83801D3F809
:103AA0003431C01A704700BF0369D3F83411D3F81A
:103AB0003821914208D2D3F83421511C1A44C3F85A
:103AC000341192F8300070474FF0FF30704700BF5C
:103AD0000369D3F83411D3F8382191423DBFD3F8AC
:103AE00034219B1893F830004FF0FF30704700BF2F
:103AF000704700BF0369D3F84422B2F5817F03D930
:103B00000123037100207047D3F8442210B49C189D
:103B10000132C3F8442284F83C11012010BC7047E4
:103B200038B503690A4A026093F84822022A04461B
:103B300001D0204638BDD3F87452002DF9D0284664
:103B400001F0A0F82846082101F01CFB204638BDF2
:103B5000C47D000038B503690546D3F84402B0F5CA
:103B6000817F1AD81446D3F84422D3F84402C2F510
:103B70008172013203F59E73A242184402D20123DE
:103B800014462B71224601F0FDF92A69D2F844321D
:103B90002344C2F84432204638BD01232B71002053
:103BA00038BD00BF2DE9F0471E46044617469DF874
:103BB00020909DF824309DF828A00D4659B3012986
:103BC0000FD090F84A329A424FF0000800D14DB31E
:103BD000012D0ED094F84B329E4212D00020BDE849
:103BE000F0871D2F4FD01A2F77D094F84A324FF01C
:103BF00000081E2E1AD01F2E6DD094F84B329E4214
:103C0000ECD1BAF1000FE9D00025B8F1000FE5D0F2
:103C1000002DE3D031E0102A35D0132A33D090F8AC
:103C20004A328846A6F11103012BE6D8022594F802
:103C30004B329E4257D0BAF1000F09D094F84C3263
:103C400094F84B02002B14BF0221002101F008FC64
:103C50002B02B9F1000F13D143F06403264A02EBA3
:103C6000C60201215268136084F84B6284F84C92BA
:103C700084F89912B8F1000FB0D00120BDE8F087A8
:103C800043F00303EAE74FF0020894F84A22974210
:103C900026D04BB194F84C3294F84A02002B14BF52
:103CA0000221002101F0DCFB4FEA0822B9F1000FEC
:103CB0000ED142F06402104B03EBC7035968012395
:103CC0000A6084F84A7284F84C9284F898327EE74D
:103CD00042F00302EFE70625A9E74FF00608D4E714
:103CE000002BE1D073E7BAF1000FB1D0B8F1000FAB
:103CF0003FF474AF8CE700BFF87E0000F8B5C368EE
:103D00001B789B0610D483680D4680211970C36808
:103D10001221197090F84932012B044606D08AB955
:103D200080F848220120F8BD0020F8BD1A4675B978
:103D3000474B4FF080711960022A0FD0012084F8A0
:103D40004802F8BD531E012BF1D90120F8BD012D09
:103D5000F2D13F4B4FF000711960EDE7D4F8746277
:103D6000002E6AD03379102B30D0002D3CD1326830
:103D70003849938B384F9BB243F0080393833279D1
:103D8000531102F110009B0041F8207003F16043D1
:103D900003F56143012102F01F0201FA02F23168CA
:103DA0001A608B8B9BB243F002038B83337903F150
:103DB000804303F5043396221D701A7000220223FB
:103DC00084F85E2284F848320120F8BD304600F0C5
:103DD00059FF3046082101F0D5F900230120C4F82D
:103DE000743284F84802F8BD012DE7D132681949D0
:103DF000938B1A4F9BB243F008039383327953118C
:103E000002F110009B0041F8207003F1604303F5BC
:103E1000614302F01F02954032681D60938B9BB294
:103E200043F002039383337903F1804303F50433B2
:103E30000021972219701A70C0E7082001F0A0F93C
:103E4000314607463E4600F0B9FEC4F8747289E771
:103E500000E100E00082FF1FC94A0000D54A0000CF
:103E6000F0B5284EDFF8ACE0A6FB0143A6FB02420A
:103E70009E0937027546960914240023B7FBF6F60F
:103E800004E00133372B1BD055F8044F2202964231
:103E9000F7DA83BB14241C4A4568B1FBF4F4914261
:103EA0002B70C0F8504207D8184B8269A3FB013130
:103EB000C1F307511170F0BD836904221A70F0BD7F
:103EC000002422464FF470274FF470654FF0360CF3
:103ED000B21AF71B002A87EAE776A6EBE776B8BFA7
:103EE0005242964202DD0A4AD35CD4E7084B2C4684
:103EF00013F80C30CFE703F1FF3C5EF82C502F0293
:103F0000E6E700BFD34D6210FF6BDC02819F5E16B7
:103F1000BC7E0000E07D0000F0B49DF814409DF8E8
:103F200010609DF818503CB135B1C7683F78BF06A6
:103F300002D50020F0BC7047069505940496F0BCAD
:103F4000FFF730BE2DE9F04184B0044694469DF859
:103F500028609DF82C209DF830009DF834E09DF8F5
:103F60003C700D4600294BD1DFF8E080D8F80010F6
:103F700041F04001C8F80010002184F849C284F8DB
:103F80005512BCF1000F2AD163692021197012B9B2
:103F900094F84A22D2B210B994F84B02C0B294F805
:103FA000981294F8996202960346CDF800E00191C8
:103FB00020462946FFF7B0FF0E9A23492046FFF717
:103FC0004FFF3A4629462046FFF798FE94F84932BB
:103FD00063B3A368C0221A7004B0BDE8F0816169C0
:103FE000CEB14FF0280C81F800C09E42216823D941
:103FF0005B00DBB20B707600E369F6B21E70C6E7B9
:104000000129B9D1DFF84480D8F8001041F08001CF
:10401000C8F80010B0E74FF0200C81F800C021680C
:104020005B00DBB20B70E3691E70B0E7A36880220F
:104030001A7004B0BDE8F0817600F6B20E705E0032
:10404000E369F6B21E70A2E7008793033480044050
:104050002DE9F041154682B004460F46984601F01E
:1040600005FA0DB9D4F8785201F000FAA3681A786D
:104070009206064609D5B4221A70304B1B78002BE5
:1040800035D0012002B0BDE8F08155BBE3681B7854
:1040900003F0200303F0FF02002BF6D1A36884F89D
:1040A0004922B0221A70A3681B7803F0200303F0A2
:1040B000FF00002BE1D1062384F85532D4F890326A
:1040C000013304D0D4F890320133C4F89032D4F8DC
:1040D0007032002BD6D001909847019802B0BDE80D
:1040E000F08101F0C3F9801B8542CFD8DBE794F85B
:1040F0004832013B012BC4D801F024F88FB1012FC5
:104100000FD10F4B1B788342BBDB0F2812DD5FB151
:10411000012F09D1A0F11003094ADBB23846137010
:10412000B0E7084B1B78EEE7A0F11003054ADBB2BD
:104130001370A6E7012088F80000A3E7A49EFF1FE4
:1041400019E400E018E400E00369490083F83C1139
:10415000036900220121C3F84412027183F8552239
:10416000704700BF2DE9F043054683B0D0F8440204
:1041700000248DF8074070B190461C460BB9D5F865
:104180007842EB6812221A7028460DF10703224686
:10419000FFF75EFF10B903B0BDE8F08395F8483231
:1041A000BBB19DF80720A2B9591E0129F3D80821F7
:1041B000022B85F8551285F85482C5F8402200F08C
:1041C000A180AB68F0221A702B6995F83C211A7017
:1041D000E1E701F04BF9082385F85532D5F8447230
:1041E00085F8548206465FB305F23B1800274FF06E
:1041F0000209002C44D12B6918F8012F1A70EA68C3
:104200001378980737D4002CFAD001F02FF9801BCF
:104210008442F4D8EB6883F8009001F027F9801B02
:1042200084420BD9EA681378DBB2D9063AD4DB07AB
:104230004AD4D5F844320137BB42DAD895F85482D3
:10424000AB68B8F1010F0CBF8022B0221A70D5F80C
:104250004432BB421AD9012385F85532D5F8803251
:10426000013304D0D5F880320133C5F88032D5F857
:1042700070329BB98FE782F80090002CD2D0CCE747
:1042800001F0F4F8801B8442B5D8D7E7D5F8603246
:10429000002285F85522002B3FF47DAF984703B0EC
:1042A000BDE8F0831023042185F855121370AB6824
:1042B00080221A70D5F88C320133D8D0D5F88C32E0
:1042C0000133C5F88C32D2E77FB9022385F8553225
:1042D000D5F88432013304D0D5F884320133C5F8DF
:1042E0008432AB6880221A70C1E7032385F8553207
:1042F000D5F888320133F4D0D5F888320133C5F8C7
:104300008832EEE7D5F84432042B7FF65AAFD5F861
:10431000741201200C6885F85E02D5F84432E2710F
:104320000E68A08005F59F772760B0600C68033B9E
:1043300098B2E08309685B42E360C882D5F87412E2
:1043400028690B68B0F1804F9A7118619A820B68E6
:1043500001D39A6812B901229A600B6800229A610F
:104360002FE700BF036993F85532013B052B0CD8AA
:10437000DFE803F003070903050304207047012069
:10438000704702207047032070470079003018BF43
:104390000120704770B51546044601F067F80DB965
:1043A000D4F8785201F062F8064694F85532072B9B
:1043B0001AD9002DF9D001F059F8801B8542F4D8A4
:1043C00001F054F8801B854210D894F84832022B33
:1043D0000CD194F85E324BB194F85532072BFBD8D0
:1043E000012384F8553201E0002DE9D194F85532CB
:1043F000072B02D9012384F85532A023013BFDD1BC
:1044000094F85502B0FA80F0400970BDF8B5069EE8
:104410000C46154607461A46294620463346FFF7FE
:10442000A1FE324629462046FFF7B4FF3846BDE8D4
:10443000F840FFF797BF00BF2DE9F041C04E337839
:1044400004460133DBB2C068A768337005783B7857
:10445000DBB203F0200282B0EDB23AB313F0100FDA
:1044600094F85E327AD0022B00F0D88094F85E3255
:10447000032B00F0D38094F85532082B00F02982EA
:1044800094F85532092B00F0648294F85532012BD0
:1044900000F0D38180233B70E36802221A703378E6
:1044A000013BDBB2337002B0BDE8F08102F0FF08DF
:1044B000EA0624D405F0400202F0FF0E1ABB03F016
:1044C000100303F0FF02002B00F0838015F00105BC
:1044D00040F0A881D4F84022D4F844329A4207D25E
:1044E000D4F840325A1C2344C4F8402293F83C517B
:1044F00023691D70A368D0221A70E0686EE0102353
:1045000003706806C8D594F855320C2B00F0098169
:1045100005F0040505F0FF07002D64D0A368002115
:10452000D0220B2084F85502C4F844121A70226974
:10453000D4F86C1213785B0884F8563209B18847B6
:104540002269D4F84432002B00F0748194F83C8145
:1045500082F800800123C4F840329DE7022B00F06E
:10456000A68094F85E32032B00F0A180D4F8383195
:10457000D4F858220233934200F04F8194F8553218
:10458000012B00F04581D4F838310133934280F09B
:10459000198194F85532012B00F00F81D4F838318D
:1045A0002269591CC4F838112344127883F830204A
:1045B000E36802221A7094F85532DBB2012B7FF4C3
:1045C0006EAF94F85D22002A7FF469AF84F85D3203
:1045D00065E794F855320C2B00F09C8102230370A0
:1045E00002B0BDE8F081574B574A94F84B0284F86B
:1045F0005C72002914BF11461946032200F04AFEDE
:10460000A3680C21C02284F85512C4F838711A70BE
:1046100023691B785B0884F856323DE7D4F874228E
:1046200013689B8B190604D594F85E32022B00F0B8
:10463000B88094F85E32032B00F08E80434B1279E1
:104640001968012393400B423FF429AF4049414B85
:104650000A70D4F87412097919700022072384F8BB
:104660005E2284F85532D4F89432013304D0D4F861
:1046700094320133C4F89432EA0611D5042384F845
:104680005532D4F88C32013304D0D4F88C32013353
:10469000C4F88C32E268102100231170C4F8403253
:1046A000A36880221A70E36802221A7032E0D4F8FC
:1046B00074321A68928B120603D594F85E22022A8D
:1046C00063D094F85E22032A00F0DA801F491A7939
:1046D0000968012393400B423FF4E1AE1C491D4B96
:1046E0000A70D4F8742212791A70A368802200200C
:1046F000072184F85E0284F855121A70E3680222DA
:104700001A70D4F89432013304D0D4F894320133BF
:10471000C4F89432D4F87032002B3FF4C0AE9847FE
:10472000BDE6D4F86832002B3FF4F2AE0022C4F8A4
:104730003421D4F83801019198470199E8E600BF87
:10474000A49EFF1F394B0000454B00002C80004009
:104750001E8000401F80004003781906FCD5C14B25
:1047600012791A70002384F85E32D4F84432216939
:10477000013BC4F84032D4F840322344022293F87B
:104780003C310B70E3681A7089E6B7491B790B70EE
:10479000A368E8211970E368032184F85E121A7097
:1047A0007DE6B14912790A70A268F0211170E268C1
:1047B000032184F85E12137071E694F85D32002BC9
:1047C0003FF4ECAEA3680021B02284F85D121A70A9
:1047D000D4F838312269591CC4F8381123441278AE
:1047E00083F8302094F85432012B00F0C480E36841
:1047F00002221A7094F85532012B33D0D4F8643267
:10480000002284F85522002B3FF4D5AE9847D2E61B
:1048100094F85D32002B7FF4B6AEE8233B70D4F8F9
:104820005822B0E6C0233B702369E0681B7884F807
:1048300055E2D3E684F83C318AE694F85432012BF1
:104840000CBF8023B0233B70E36802221A70D4F8B7
:10485000803201333FF45EAFD4F880320133C4F8C4
:10486000803257E7D4F88032013304D0D4F8803254
:104870000133C4F88032D4F87032002BC6D19AE6E6
:10488000784A1B791370A3680021B02284F85E1265
:104890001A70D4F858322269013BC4F83831D4F880
:1048A0003831591CC4F838112344127883F8302069
:1048B00094F85432012B00F0C180E36802221A7090
:1048C000D4F86432002284F85522002B7FF427AFFD
:1048D000E5E505F0100303F0FF02002B52D00023A2
:1048E0000421102284F85E3284F855120270A26806
:1048F00080211170E268C4F8403202231370D4F8AA
:104900008C3201333FF406AFD4F88C320133C4F853
:104910008C32FFE6554B564D84F85C22002914BFBB
:1049200029461946032294F84B0200F0B3FC236990
:104930001B78D4F83821B2F5817FDBB207D8D4F8E0
:104940003821A1180132C4F8382181F83030E068EC
:1049500044E6EB062ED50422102384F8552203707A
:10496000A36880221A70E36802221A70D4F88C328D
:104970000133C9D1CEE62823013BFDD1A3688022B3
:104980001A7034E715F0010528D084F85E22D4F8B7
:104990004032002B59D1022384F85532D4F88432A6
:1049A000013304D0D4F884320133C4F88432802334
:1049B0003B7078E6E9072CD50223802284F8553233
:1049C0003A70E2681370D4F8843201333FF4A2AE37
:1049D000D4F884320133C4F884329BE6D4F84032F0
:1049E0000133C4F84032D4F84422934242D394F8BD
:1049F000543284F85552012B0CBF8023B0233B70F6
:104A0000E36802221A70D4F86032002B7FF487AE7C
:104A100045E594F85E32012B34D0D4F85832012B9E
:104A20004FF00A020CBFE823E02384F855223B70C4
:104A30002269E368127802221A7030E52823013BCC
:104A4000FDD1A36880221A7037E7032384F855321A
:104A5000D4F888320133AAD0D4F888320133C4F8AC
:104A60008832A4E71C8000401F800040394B0000C2
:104A7000454B000094F85E32012B12D0D4F840323E
:104A800021697AE60223E12284F85E323A70D4F892
:104A900074120C4A097911702169E268097813705F
:104AA000FDE40223F12284F85E323A70D4F87412E5
:104AB000044A09791170226994F83D111170E26875
:104AC0001370ECE41B80004000210148FFF7B4BCE8
:104AD0008088FF1F01210148FFF7AEBC1C8BFF1F20
:104AE000C3681B7803F020035BB190F85C3201339C
:104AF000DBB2012B80F85C3217D990F84B0200F042
:104B000045BC70B503F0FF05044680F8555290F897
:104B10004B0200F03BFCD4F868325BB1C4F834516E
:104B2000D4F83801BDE87040184790F84932012B9D
:104B3000E3D1704770BD00BF00210148FFF7D0BF2F
:104B40008088FF1F01210148FFF7CABF1C8BFF1F90
:104B50002DE9F843134BDFF85C90DFF85C80124ED0
:104B6000124D1E6000244FF47A774A4641461C716C
:104B70001C739F6018465C731D6102F079F80C4B42
:104B80004FF0010E05F527751C711C7383F80DE0BD
:104B90004A46414618461D619F601E60BDE8F843C5
:104BA00002F066B8909EFF1FC47D00008088FF1F42
:104BB0007C9EFF1FFC87FF1F213B0000F0B572B6F3
:104BC00099B902688AB103790F2B0ED8274C218836
:104BD00041FA03F5ED070AD503F1007303F590637D
:104BE000B2EB431F03D162B6F0BD204C21880023F5
:104BF00041FA03F212F0010207D00133102BF7D172
:104C000062B6002203710260F0BD01259D40294378
:104C1000218062B6164E174D174FDFF864E0D9B207
:104C20000171346844F0020434602C6844F00204DA
:104C30002C60A6F580268224A5F5802503F100735B
:104C40003C6003F59063223E243D0C4C8EF800102E
:104C50005B0131702970217003601A605A609A609C
:104C6000DA601A615A619A61DA61F0BDA69EFF1F8F
:104C7000408004403C800440008000401F80004091
:104C80001A80004003790F2B11D8094A10B4137011
:104C900072B6084904790A880123A34022EA030373
:104CA0000B8062B61022002310BC027103607047B3
:104CB0001A800040A69EFF1F10B4EFF3108272B658
:104CC000437F33B9017F012907D003290FD0012386
:104CD000437702B962B610BC7047124C2168A1B18B
:104CE000114943610B68836108605861EFE70F4C1D
:104CF000216881B10E4943610B6883610860586186
:104D00000C4B4FF080511960E1E7074B4161816125
:104D100020601860DBE7064B41618161206018600C
:104D2000EEE700BFB89EFF1FB49EFF1FA89EFF1FA7
:104D3000AC9EFF1F04ED00E070B5EFF3108272B679
:104D40000C4C206880B10C4E00254369236073B180
:104D50009D6102B962B6457783689847EFF3108288
:104D600072B620680028F0D102B962B670BD336017
:104D7000EFE700BFA89EFF1FAC9EFF1FFFF7DCBF41
:104D8000184A30B41468002C27D0036821688B427D
:104D90000ED2CB1A00218460C1602360E0601060F5
:104DA0000223037530BC704711688B42144608D348
:104DB000A2685B1A0360002AF6D18260C460A0601A
:104DC000EEE7D268C2608460E060C568CB1A022258
:104DD000A8602360027530BC70478460C4601060B6
:104DE000DEE700BFB09EFF1FF8B5224E34682CB33B
:104DF0002368002B3AD1204F1D4604E03468ECB103
:104E00002368002B32D1A36803B1DD6020693360D1
:104E1000036825751B68BB4221D1037F4560022BC7
:104E2000C46020D0FFF748FF6368002BE6D0236002
:104E30002046FFF7A5FF3468002CE1D1EFF3108383
:104E400072B60E4A00211068116003B962B628B12B
:104E50008468FFF795FF20460028F9D1F8BD224667
:104E600000219847E0E783689847DDE7013B23602E
:104E7000E4E700BFB09EFF1F813A0000C09EFF1F05
:104E8000024A136801331360FFF7AEBFC89EFF1FCD
:104E900000B5064A036812885B6883B001A9ADF8C3
:104EA00004200222984703B05DF804FBF47E000062
:104EB00010B50446006801F01DFF204610BD00BF7C
:104EC00038B543688B4201D3012038BD0D460446F6
:104ED0000131006802F084FA0028F6D0A36884E863
:104EE0002100002BF0D10370EEE700BFF8B50446B7
:104EF000154632B9036803B11A700023A360204637
:104F0000F8BD0E461146FFF7DBFF074648B920689B
:104F100010B101F0EFFE276000236360A36020461C
:104F2000F8BDA5603146206802F064FCE7E700BFE9
:104F300038B500230446036043608360037341B1C6
:104F400008460D4602F0BCFC294602462046FFF703
:104F5000CDFF204638BD00BF83688B4203D900686F
:104F600008B108447047024900230B700846704797
:104F7000C49EFF1F08B5FCF761FFFCF7B5FF01F009
:104F8000C9FBFAE7844641EA000313F003036DD13D
:104F9000403A41D351F8043B40F8043B51F8043BFC
:104FA00040F8043B51F8043B40F8043B51F8043B03
:104FB00040F8043B51F8043B40F8043B51F8043BF3
:104FC00040F8043B51F8043B40F8043B51F8043BE3
:104FD00040F8043B51F8043B40F8043B51F8043BD3
:104FE00040F8043B51F8043B40F8043B51F8043BC3
:104FF00040F8043B51F8043B40F8043B51F8043BB3
:1050000040F8043B51F8043B40F8043B51F8043BA2
:1050100040F8043B403ABDD2303211D351F8043B42
:1050200040F8043B51F8043B40F8043B51F8043B82
:1050300040F8043B51F8043B40F8043B103AEDD2F1
:105040000C3205D351F8043B40F8043B043AF9D242
:10505000043208D0D2071CBF11F8013B00F8013B15
:1050600001D30B8803806046704700BF082A13D322
:105070008B078DD010F003038AD0C3F10403D21A3A
:10508000DB071CBF11F8013B00F8013B80D331F86E
:10509000023B20F8023B7BE7043AD9D3013A11F8EE
:1050A000013B00F8013BF9D20B7803704B78437059
:1050B0008B7883706046704708B5104C08E0236811
:1050C00059050DD423681A050FD42368DB0411D4C5
:1050D00023685803F3D500F083FB23685905F1D505
:1050E00001F0ECFB23681A05EFD501F07DFC236885
:1050F000DB04EDD501F00EFDEAE700BF348004408B
:1051000008B5FFF7D9FF00BF014B10221A80704786
:1051100000200540704700BF094908B50B6830B151
:105120006A461844A2F58052904202D2086018469E
:1051300008BD01F0A9FD0C2303604FF0FF3008BD4E
:10514000B88DFF1FEFF3138070B9EFF310836BB9C5
:10515000EFF305825AB94FF48070EFF311832BB14E
:10516000984228BF184670474FF0FF3070470F2A0B
:1051700001D81846F1E7014BD05CEEE7F0E300E020
:1051800001F0B0BD01F0B6BDF0B44D1E2E460024B6
:1051900000E00134B0FBF2F302FB1300092800F138
:1051A00030078ABF3730F8B2C0B206F8010F184690
:1051B000002BEED10A1953704CB1107815F8016F1D
:1051C00028700133E01A834202F80169F5DB0846D2
:1051D000F0BC7047704700BF10B40F4B53F830203D
:1051E00092F880422CB1012369B182F8803010BC62
:1051F000704703EBC0035B681A6841B922F00202F2
:105200001A6010BC704782F8003110BC704742F041
:1052100003021A6010BC7047F87E00001C4A02EBC3
:10522000C00301295B6811D004291BD052F830005B
:10523000002280F8802229B1022920D0032922D01F
:105240001A6070474FF480721A60704752F830004D
:105250004FF4A27280F880121A601A6822F02002BD
:105260001A60704752F830104FF4A272012081F892
:1052700080021A601A6842F020021A60704740F2F9
:1052800003121A6070474FF481721A60704700BFB2
:10529000F87E0000212848D8F8B5042A44D8DFE871
:1052A00002F0484B4E0345004FF410262B4B03EB06
:1052B000C0030D465C68216811F4E06148D0284BBA
:1052C000284A2949C3F89C2104F140422748C3F8E1
:1052D000A411A2F59221264FC3F8A0017C292548EC
:1052E000C3F8A871C3F8AC012CD9A2F594237C2B88
:1052F0002AD9A2F596237C2B28D9A2F598237C2BBA
:1053000029D9A2F59A227C2A27D81B4872B623688D
:1053100023F4702343F08072C4F3840116432360A6
:1053200040F82150266062B6F8BD70474FF4302631
:10533000BCE74FF40026B9E74FF44026B6E74FF438
:105340002026B3E70D48E1E70D48DFE70D48DDE72C
:10535000FFF764FFB3E70C48D8E7F8BDF87E00001C
:105360000082FF1FD187FF1F7987FF1FA587FF1FBF
:105370004D87FF1F2187FF1F948EFF1FBC8DFF1FCE
:10538000F48DFF1F448EFF1F748EFF1F1A4B03EB1B
:10539000C00010B4426802F14043A3F592217C2979
:1053A00023D9A3F594217C290DD9A3F596217C2935
:1053B0001FD9A3F598217C2919D9A3F59A237C2B11
:1053C00011D80E4C00E00E4C72B613680D4823F055
:1053D0008773C2F3840123F4803343F08073136036
:1053E00044F8210062B610BC7047074CECE7074C4C
:1053F000EAE7074CE8E700BFF87E0000948EFF1F45
:10540000F48DFF1FD5510000BC8DFF1F748EFF1F50
:10541000448EFF1F30B4054B054D064C0022102171
:105420001A602A602060196030BC704714D00340B5
:1054300004D0034000D00340212801D8FFF7CCBEA0
:10544000704700BF212806D8044B53F8303093F83A
:105450000002C0B270470020704700BFF87E000015
:10546000212801D8FFF7DABE704700BF72B60C4999
:105470000C4B0D4A1B680868126862B6520102D5CF
:10548000322B88BF01300949C3F5EA334FF47A72F1
:10549000BF33A1FB031302FB00F000EB9310704736
:1054A000C89EFF1F18E000E004ED00E089888888AE
:1054B0002DE9F843054672B6204F214B214A1B685F
:1054C0003C68126862B6520102D5322B88BF0134A3
:1054D00095B3C3F5EA331C4EDFF86490DFF86480BF
:1054E000BF334FF47A72A6FB031302FB04F404EB00
:1054F000931472B6D9F800103A68D8F800E062B692
:10550000C1F5EA33BF33A6FB03031EF0806FC4EB83
:1055100093134FF47A7002D0322988BF013200FB16
:105520000233B3F57A7F04D3013D05D004F57A74D4
:10553000DFE701F0EFF8DCE7BDE8F883C89EFF1F66
:1055400018E000E004ED00E089888888F8B52D4B6C
:105550002D49DFF8D0E0DFF8D0C02C4E2C4D2D4C7B
:105560002D4A2E4F4FF4000018604FF080701860E5
:105570004FF0007018604FF0806018604FF00060CE
:1055800018600020086028234EF6FF71CCF8001048
:10559000CEF80030336013602B6023603B60B36251
:1055A0009362092245F8242CC4F8D80F05F57F65CD
:1055B000C7F8D41F07F5FF2707F5FA67C6F8F83FC5
:1055C0002B6006F5FF26C4F8D42F05F5FD2504F55C
:1055D000FF24386006F2F4761148316005F5FF6566
:1055E00004F5FD642B602360026001F0E7F81920E8
:1055F000FFF75EFF00F05CFE40F21310BDE8F840DC
:10560000FFF756BF08E100E0048003401480034028
:10561000248003402C8003401C80034034800340DE
:1056200000800B400C80034008800340431E032B86
:1056300014D872B60A4951F8230068B170B4094C05
:10564000058834F81320466841F82360521B24F87B
:10565000132062B670BC704762B670470020704776
:10566000249FFF1F88A1FF1F013803280BD872B6A3
:10567000074B53F8203043B100205B680130002B0A
:10568000FBD162B67047002070471846F9E700BFAB
:10569000789FFF1F30B472B62B4A13781D0706D5CA
:1056A0002A4B196A002936D0996A002941D05378CB
:1056B0001C0706D5254B196C00293ED0996C002992
:1056C00039D09378190705D5204B196E002936D0AB
:1056D000996E89B1D3781B0707D51C4BD3F880206E
:1056E0007AB3D3F8882011213AB162B6184B002260
:1056F0001A7030BC00F07EBE0D21154C154D22787D
:1057000043F8315003EBC1030830013A586022706E
:1057100062B630BC704704220D4C0F4D217843F81F
:10572000325003EBC20308304A1E5860227062B642
:10573000EFE70521E1E70921DFE70822ECE70C228A
:10574000EAE71022E8E700BF308000000080FF1F7A
:10575000A19FFF1FC800400088004000431E032B8C
:105760001DD81B4A400140F0100030B4104472B6FE
:10577000184CE25C032A1BD8DFE802F0021215176E
:1057800003220D88E25410F0080F14BFC8238823A9
:1057900043EA054308310360416062B630BC70479C
:1057A00008300222EDE70522EBE708300422E8E7A3
:1057B000094A52F8230038B1084A52F823004160E0
:1057C00042F8231062B6E9E742F82310034AF7E7EC
:1057D0000080FF1FB09FFF1F789FFF1F889FFF1F44
:1057E0002DE9F04FDFF80CB3DFF80CA387B044E0ED
:1057F000AB4F4FEA930807EBC809013ED9F80420E4
:1058000003F00803F6B2A2F1080003F0FF04002B36
:1058100040F0028157F838301B0C99B222F8081C6E
:10582000002B00F0F0809F4B22F8064C42F8044C0D
:1058300053F82620002A00F0C5829B4D55F82630EB
:1058400058609A4C45F8260034F81630194424F86C
:10585000161000F0AFFD002800F0AD82944A954B81
:1058600019F0080F00F1080018BF1346C9F804002A
:1058700047F8383008238BF800309BF80040E4B23A
:1058800061071AD58C4B1B78A3B18C490A7802F0BA
:10589000FF0322B1013BDBB20B7003B900BE8849A4
:1058A0000A7802F0FF032AB1013BDBB20B70002B38
:1058B00000F0578204238BF8003004F0080303F053
:1058C000FF02002B00F0CC809AF80030DBB21E09FA
:1058D0008ED19C08DFF8C89159F8342009EBC40137
:1058E000C2F38302013A49680C2A00F28880DFE89B
:1058F00002F07C7C868686868686478686860700BA
:105900000868704D4A68704F704E286081B240F24E
:105910008160674B6A604FF0010E0022814249F8B6
:1059200034303A60C9F81020C9F8182086F800E031
:105930005B4C00F2E380B1F5D06F80F04683B1F5A7
:10594000817F00F0FC8200F28D82802900F0778355
:10595000822940F0FA82A98801F07F01042900F22F
:10596000F4825B485B4C89000844227062700278C4
:10597000930740F1588484F800E04FF0020E42E3B0
:10598000514F3A6832B3544B504E544918883478CA
:105990000D784028864645F0020828BF4FF0400E9B
:1059A000002C84F001043470CEEB00000CBF88247E
:1059B000C82409EBC80680B285F0010544EA0E440C
:1059C0007260188049F8384072440D70002800F069
:1059D00045813A603B4B1A88B2F5A06F0FD1002188
:1059E0009A7859703E4B1A7009E0364A108842F294
:1059F0002102904200F037812D4A49F83420394A7B
:105A00000123137036E72A4A2A4B19F0080F18BFF2
:105A1000134647F838302DE700F0ECFC324A3349A2
:105A200052F82630002B00F0D18158688C5D42F886
:105A3000260003F10802C9F80420032C05D8DFE88A
:105A400004F02C02292602228A551A8819F0080F20
:105A50000CBF8823C82343EA024347F8383009E7DC
:105A6000E00700F18181210600F1F281A20706D54D
:105A70001F4A204913780220DBB213700870E30636
:105A800002D51C4B10221A7007B0BDE8F08F04221B
:105A90008A55DAE705228A55D7E703228A55D4E7E3
:105AA0000080FF1F249FFF1FD09EFF1F88A1FF1FA4
:105AB000C800400088004000AC9FFF1F359FFF1FBB
:105AC000B49FFF1F989FFF1FCC9EFF1F349FFF1F97
:105AD000C0200740A49FFF1FE09EFF1FA09FFF1F45
